{
  "contractName": "Survivor",
  "abi": [
    {
      "constant": true,
      "inputs": [],
      "name": "currentWeek",
      "outputs": [
        {
          "name": "",
          "type": "uint256"
        }
      ],
      "payable": false,
      "stateMutability": "view",
      "type": "function"
    },
    {
      "constant": true,
      "inputs": [],
      "name": "currentWeekGameEnd",
      "outputs": [
        {
          "name": "",
          "type": "uint256"
        }
      ],
      "payable": false,
      "stateMutability": "view",
      "type": "function"
    },
    {
      "constant": true,
      "inputs": [
        {
          "name": "",
          "type": "uint256"
        }
      ],
      "name": "remainingPlayers",
      "outputs": [
        {
          "name": "",
          "type": "address"
        }
      ],
      "payable": false,
      "stateMutability": "view",
      "type": "function"
    },
    {
      "constant": false,
      "inputs": [],
      "name": "unpause",
      "outputs": [],
      "payable": false,
      "stateMutability": "nonpayable",
      "type": "function"
    },
    {
      "constant": true,
      "inputs": [],
      "name": "numPlayersRemaining",
      "outputs": [
        {
          "name": "",
          "type": "uint256"
        }
      ],
      "payable": false,
      "stateMutability": "view",
      "type": "function"
    },
    {
      "constant": true,
      "inputs": [],
      "name": "currentPickDeadline",
      "outputs": [
        {
          "name": "",
          "type": "uint256"
        }
      ],
      "payable": false,
      "stateMutability": "view",
      "type": "function"
    },
    {
      "constant": true,
      "inputs": [],
      "name": "paused",
      "outputs": [
        {
          "name": "",
          "type": "bool"
        }
      ],
      "payable": false,
      "stateMutability": "view",
      "type": "function"
    },
    {
      "constant": true,
      "inputs": [],
      "name": "ENTRY_DEADLINE",
      "outputs": [
        {
          "name": "",
          "type": "uint256"
        }
      ],
      "payable": false,
      "stateMutability": "view",
      "type": "function"
    },
    {
      "constant": false,
      "inputs": [],
      "name": "renounceOwnership",
      "outputs": [],
      "payable": false,
      "stateMutability": "nonpayable",
      "type": "function"
    },
    {
      "constant": false,
      "inputs": [],
      "name": "pause",
      "outputs": [],
      "payable": false,
      "stateMutability": "nonpayable",
      "type": "function"
    },
    {
      "constant": true,
      "inputs": [],
      "name": "owner",
      "outputs": [
        {
          "name": "",
          "type": "address"
        }
      ],
      "payable": false,
      "stateMutability": "view",
      "type": "function"
    },
    {
      "constant": true,
      "inputs": [
        {
          "name": "",
          "type": "uint256"
        }
      ],
      "name": "winningPlayers",
      "outputs": [
        {
          "name": "",
          "type": "address"
        }
      ],
      "payable": false,
      "stateMutability": "view",
      "type": "function"
    },
    {
      "constant": true,
      "inputs": [
        {
          "name": "",
          "type": "uint256"
        }
      ],
      "name": "playersEntered",
      "outputs": [
        {
          "name": "",
          "type": "address"
        }
      ],
      "payable": false,
      "stateMutability": "view",
      "type": "function"
    },
    {
      "constant": true,
      "inputs": [
        {
          "name": "",
          "type": "address"
        }
      ],
      "name": "players",
      "outputs": [
        {
          "name": "hasJoined",
          "type": "bool"
        },
        {
          "name": "currentPick",
          "type": "uint256"
        }
      ],
      "payable": false,
      "stateMutability": "view",
      "type": "function"
    },
    {
      "constant": false,
      "inputs": [
        {
          "name": "_newOwner",
          "type": "address"
        }
      ],
      "name": "transferOwnership",
      "outputs": [],
      "payable": false,
      "stateMutability": "nonpayable",
      "type": "function"
    },
    {
      "constant": true,
      "inputs": [],
      "name": "ENTRY_FEE",
      "outputs": [
        {
          "name": "",
          "type": "uint256"
        }
      ],
      "payable": false,
      "stateMutability": "view",
      "type": "function"
    },
    {
      "inputs": [
        {
          "name": "_entryFee",
          "type": "uint256"
        },
        {
          "name": "_entryDeadline",
          "type": "uint256"
        },
        {
          "name": "_firstWeekGameEnd",
          "type": "uint256"
        }
      ],
      "payable": false,
      "stateMutability": "nonpayable",
      "type": "constructor"
    },
    {
      "anonymous": false,
      "inputs": [
        {
          "indexed": true,
          "name": "player",
          "type": "address"
        }
      ],
      "name": "LogNewPlayerJoined",
      "type": "event"
    },
    {
      "anonymous": false,
      "inputs": [
        {
          "indexed": true,
          "name": "player",
          "type": "address"
        },
        {
          "indexed": true,
          "name": "team",
          "type": "uint256"
        }
      ],
      "name": "LogPickMade",
      "type": "event"
    },
    {
      "anonymous": false,
      "inputs": [
        {
          "indexed": true,
          "name": "player",
          "type": "address"
        },
        {
          "indexed": true,
          "name": "oldteam",
          "type": "uint256"
        },
        {
          "indexed": true,
          "name": "newteam",
          "type": "uint256"
        }
      ],
      "name": "LogPickChanged",
      "type": "event"
    },
    {
      "anonymous": false,
      "inputs": [
        {
          "indexed": false,
          "name": "description",
          "type": "string"
        }
      ],
      "name": "LogOraclizeQuery",
      "type": "event"
    },
    {
      "anonymous": false,
      "inputs": [
        {
          "indexed": true,
          "name": "players",
          "type": "address[]"
        }
      ],
      "name": "LogRemainingPlayersReceived",
      "type": "event"
    },
    {
      "anonymous": false,
      "inputs": [],
      "name": "Pause",
      "type": "event"
    },
    {
      "anonymous": false,
      "inputs": [],
      "name": "Unpause",
      "type": "event"
    },
    {
      "anonymous": false,
      "inputs": [
        {
          "indexed": true,
          "name": "previousOwner",
          "type": "address"
        }
      ],
      "name": "OwnershipRenounced",
      "type": "event"
    },
    {
      "anonymous": false,
      "inputs": [
        {
          "indexed": true,
          "name": "previousOwner",
          "type": "address"
        },
        {
          "indexed": true,
          "name": "newOwner",
          "type": "address"
        }
      ],
      "name": "OwnershipTransferred",
      "type": "event"
    },
    {
      "constant": false,
      "inputs": [],
      "name": "joinPool",
      "outputs": [],
      "payable": true,
      "stateMutability": "payable",
      "type": "function"
    },
    {
      "constant": false,
      "inputs": [
        {
          "name": "_team",
          "type": "uint256"
        }
      ],
      "name": "makePick",
      "outputs": [],
      "payable": false,
      "stateMutability": "nonpayable",
      "type": "function"
    },
    {
      "constant": true,
      "inputs": [
        {
          "name": "_team",
          "type": "uint256"
        }
      ],
      "name": "changePick",
      "outputs": [],
      "payable": false,
      "stateMutability": "view",
      "type": "function"
    },
    {
      "constant": false,
      "inputs": [],
      "name": "getThisWeeksResults",
      "outputs": [],
      "payable": false,
      "stateMutability": "nonpayable",
      "type": "function"
    },
    {
      "constant": false,
      "inputs": [
        {
          "name": "myid",
          "type": "bytes32"
        },
        {
          "name": "result",
          "type": "string"
        }
      ],
      "name": "__callback",
      "outputs": [],
      "payable": false,
      "stateMutability": "nonpayable",
      "type": "function"
    },
    {
      "constant": false,
      "inputs": [
        {
          "name": "queryId",
          "type": "bytes32"
        },
        {
          "name": "result",
          "type": "string"
        },
        {
          "name": "proof",
          "type": "bytes"
        }
      ],
      "name": "__callback",
      "outputs": [],
      "payable": false,
      "stateMutability": "nonpayable",
      "type": "function"
    },
    {
      "constant": true,
      "inputs": [],
      "name": "getEnteredPlayers",
      "outputs": [
        {
          "name": "",
          "type": "address[]"
        }
      ],
      "payable": false,
      "stateMutability": "view",
      "type": "function"
    },
    {
      "constant": true,
      "inputs": [],
      "name": "getRemainingPlayers",
      "outputs": [
        {
          "name": "",
          "type": "address[]"
        }
      ],
      "payable": false,
      "stateMutability": "view",
      "type": "function"
    },
    {
      "constant": true,
      "inputs": [],
      "name": "getWinningPlayers",
      "outputs": [
        {
          "name": "",
          "type": "address[]"
        }
      ],
      "payable": false,
      "stateMutability": "view",
      "type": "function"
    },
    {
      "constant": true,
      "inputs": [],
      "name": "getNumberOfPlayers",
      "outputs": [
        {
          "name": "",
          "type": "uint256"
        }
      ],
      "payable": false,
      "stateMutability": "view",
      "type": "function"
    },
    {
      "constant": true,
      "inputs": [
        {
          "name": "_player",
          "type": "address"
        }
      ],
      "name": "getPlayersPick",
      "outputs": [
        {
          "name": "",
          "type": "uint256"
        }
      ],
      "payable": false,
      "stateMutability": "view",
      "type": "function"
    },
    {
      "constant": true,
      "inputs": [
        {
          "name": "_player",
          "type": "address"
        }
      ],
      "name": "getPlayersPickHistory",
      "outputs": [
        {
          "name": "",
          "type": "bool[32]"
        }
      ],
      "payable": false,
      "stateMutability": "view",
      "type": "function"
    },
    {
      "constant": true,
      "inputs": [],
      "name": "getContractBalance",
      "outputs": [
        {
          "name": "",
          "type": "uint256"
        }
      ],
      "payable": false,
      "stateMutability": "view",
      "type": "function"
    },
    {
      "constant": true,
      "inputs": [],
      "name": "getTime",
      "outputs": [
        {
          "name": "",
          "type": "uint256"
        }
      ],
      "payable": false,
      "stateMutability": "view",
      "type": "function"
    }
  ],
  "bytecode": "0x608060405260008060146101000a81548160ff02191690831515021790555061040060405190810160405280600160ff168152602001600260ff168152602001600360ff168152602001600460ff168152602001600560ff168152602001600660ff168152602001600760ff168152602001600860ff168152602001600960ff168152602001600a60ff168152602001600b60ff168152602001600c60ff168152602001600d60ff168152602001600e60ff168152602001600f60ff168152602001601060ff168152602001601160ff168152602001601260ff168152602001601360ff168152602001601460ff168152602001601560ff168152602001601660ff168152602001601760ff168152602001601860ff168152602001601960ff168152602001601a60ff168152602001601b60ff168152602001601c60ff168152602001601d60ff168152602001601e60ff168152602001601f60ff168152602001602060ff1681525060099060206200017b92919062000f9d565b506007546029553480156200018f57600080fd5b5060405160608062003977833981018060405281019080805190602001909291908051906020019092919080519060200190929190505050336000806101000a81548173ffffffffffffffffffffffffffffffffffffffff021916908373ffffffffffffffffffffffffffffffffffffffff160217905550826006819055508160078190555060075460298190555080602b819055506001600881905550602954602a81905550602b54602c81905550620002a160017f01000000000000000000000000000000000000000000000000000000000000000260107f01000000000000000000000000000000000000000000000000000000000000000217620002c9640100000000026401000000009004565b620002c064037e11d60062000681640100000000026401000000009004565b50505062001096565b6000600160009054906101000a900473ffffffffffffffffffffffffffffffffffffffff1673ffffffffffffffffffffffffffffffffffffffff1614806200034c575060006200034a600160009054906101000a900473ffffffffffffffffffffffffffffffffffffffff16620009f5640100000000026401000000009004565b145b156200036f576200036d600062000a00640100000000026401000000009004565b505b600160009054906101000a900473ffffffffffffffffffffffffffffffffffffffff1673ffffffffffffffffffffffffffffffffffffffff166338cc48316040518163ffffffff167c0100000000000000000000000000000000000000000000000000000000028152600401602060405180830381600087803b158015620003f657600080fd5b505af11580156200040b573d6000803e3d6000fd5b505050506040513d60208110156200042257600080fd5b810190808051906020019092919050505073ffffffffffffffffffffffffffffffffffffffff16600260009054906101000a900473ffffffffffffffffffffffffffffffffffffffff1673ffffffffffffffffffffffffffffffffffffffff161415156200058f57600160009054906101000a900473ffffffffffffffffffffffffffffffffffffffff1673ffffffffffffffffffffffffffffffffffffffff166338cc48316040518163ffffffff167c0100000000000000000000000000000000000000000000000000000000028152600401602060405180830381600087803b1580156200051157600080fd5b505af115801562000526573d6000803e3d6000fd5b505050506040513d60208110156200053d57600080fd5b8101908080519060200190929190505050600260006101000a81548173ffffffffffffffffffffffffffffffffffffffff021916908373ffffffffffffffffffffffffffffffffffffffff1602179055505b600260009054906101000a900473ffffffffffffffffffffffffffffffffffffffff1673ffffffffffffffffffffffffffffffffffffffff1663688dcfd7826040518263ffffffff167c010000000000000000000000000000000000000000000000000000000002815260040180827effffffffffffffffffffffffffffffffffffffffffffffffffffffffffffff19167effffffffffffffffffffffffffffffffffffffffffffffffffffffffffffff19168152602001915050600060405180830381600087803b1580156200066557600080fd5b505af11580156200067a573d6000803e3d6000fd5b5050505050565b6000600160009054906101000a900473ffffffffffffffffffffffffffffffffffffffff1673ffffffffffffffffffffffffffffffffffffffff161480620007045750600062000702600160009054906101000a900473ffffffffffffffffffffffffffffffffffffffff16620009f5640100000000026401000000009004565b145b15620007275762000725600062000a00640100000000026401000000009004565b505b600160009054906101000a900473ffffffffffffffffffffffffffffffffffffffff1673ffffffffffffffffffffffffffffffffffffffff166338cc48316040518163ffffffff167c0100000000000000000000000000000000000000000000000000000000028152600401602060405180830381600087803b158015620007ae57600080fd5b505af1158015620007c3573d6000803e3d6000fd5b505050506040513d6020811015620007da57600080fd5b810190808051906020019092919050505073ffffffffffffffffffffffffffffffffffffffff16600260009054906101000a900473ffffffffffffffffffffffffffffffffffffffff1673ffffffffffffffffffffffffffffffffffffffff161415156200094757600160009054906101000a900473ffffffffffffffffffffffffffffffffffffffff1673ffffffffffffffffffffffffffffffffffffffff166338cc48316040518163ffffffff167c0100000000000000000000000000000000000000000000000000000000028152600401602060405180830381600087803b158015620008c957600080fd5b505af1158015620008de573d6000803e3d6000fd5b505050506040513d6020811015620008f557600080fd5b8101908080519060200190929190505050600260006101000a81548173ffffffffffffffffffffffffffffffffffffffff021916908373ffffffffffffffffffffffffffffffffffffffff1602179055505b600260009054906101000a900473ffffffffffffffffffffffffffffffffffffffff1673ffffffffffffffffffffffffffffffffffffffff1663ca6ad1e4826040518263ffffffff167c010000000000000000000000000000000000000000000000000000000002815260040180828152602001915050600060405180830381600087803b158015620009d957600080fd5b505af1158015620009ee573d6000803e3d6000fd5b5050505050565b6000813b9050919050565b600062000a1b62000a22640100000000026401000000009004565b9050919050565b60008062000a53731d3b2638a7cc9f2cb3d298a3da7a90b67e5506ed620009f5640100000000026401000000009004565b111562000b0857731d3b2638a7cc9f2cb3d298a3da7a90b67e5506ed600160006101000a81548173ffffffffffffffffffffffffffffffffffffffff021916908373ffffffffffffffffffffffffffffffffffffffff16021790555062000afe6040805190810160405280600b81526020017f6574685f6d61696e6e657400000000000000000000000000000000000000000081525062000f81640100000000026401000000009004565b6001905062000f7e565b600062000b3873c03a2615d5efaf5f49f60b7bb6583eaec212fdf1620009f5640100000000026401000000009004565b111562000bed5773c03a2615d5efaf5f49f60b7bb6583eaec212fdf1600160006101000a81548173ffffffffffffffffffffffffffffffffffffffff021916908373ffffffffffffffffffffffffffffffffffffffff16021790555062000be36040805190810160405280600c81526020017f6574685f726f707374656e33000000000000000000000000000000000000000081525062000f81640100000000026401000000009004565b6001905062000f7e565b600062000c1d73b7a07bcf2ba2f2703b24c0691b5278999c59ac7e620009f5640100000000026401000000009004565b111562000cd25773b7a07bcf2ba2f2703b24c0691b5278999c59ac7e600160006101000a81548173ffffffffffffffffffffffffffffffffffffffff021916908373ffffffffffffffffffffffffffffffffffffffff16021790555062000cc86040805190810160405280600981526020017f6574685f6b6f76616e000000000000000000000000000000000000000000000081525062000f81640100000000026401000000009004565b6001905062000f7e565b600062000d0273146500cfd35b22e4a392fe0adc06de1a1368ed48620009f5640100000000026401000000009004565b111562000db75773146500cfd35b22e4a392fe0adc06de1a1368ed48600160006101000a81548173ffffffffffffffffffffffffffffffffffffffff021916908373ffffffffffffffffffffffffffffffffffffffff16021790555062000dad6040805190810160405280600b81526020017f6574685f72696e6b65627900000000000000000000000000000000000000000081525062000f81640100000000026401000000009004565b6001905062000f7e565b600062000de7736f485c8bf6fc43ea212e93bbf8ce046c7f1cb475620009f5640100000000026401000000009004565b111562000e4d57736f485c8bf6fc43ea212e93bbf8ce046c7f1cb475600160006101000a81548173ffffffffffffffffffffffffffffffffffffffff021916908373ffffffffffffffffffffffffffffffffffffffff1602179055506001905062000f7e565b600062000e7d7320e12a1f859b3feae5fb2a0a32c18f5a65555bbf620009f5640100000000026401000000009004565b111562000ee3577320e12a1f859b3feae5fb2a0a32c18f5a65555bbf600160006101000a81548173ffffffffffffffffffffffffffffffffffffffff021916908373ffffffffffffffffffffffffffffffffffffffff1602179055506001905062000f7e565b600062000f137351efaf4c8b3c9afbd5ab9f4bbc82784ab6ef8faa620009f5640100000000026401000000009004565b111562000f79577351efaf4c8b3c9afbd5ab9f4bbc82784ab6ef8faa600160006101000a81548173ffffffffffffffffffffffffffffffffffffffff021916908373ffffffffffffffffffffffffffffffffffffffff1602179055506001905062000f7e565b600090505b90565b806003908051906020019062000f9992919062000fe7565b5050565b826020810192821562000fd4579160200282015b8281111562000fd3578251829060ff1690559160200191906001019062000fb1565b5b50905062000fe391906200106e565b5090565b828054600181600116156101000203166002900490600052602060002090601f016020900481019282601f106200102a57805160ff19168380011785556200105b565b828001600101855582156200105b579182015b828111156200105a5782518255916020019190600101906200103d565b5b5090506200106a91906200106e565b5090565b6200109391905b808211156200108f57600081600090555060010162001075565b5090565b90565b6128d180620010a66000396000f300608060405260043610610180576000357c0100000000000000000000000000000000000000000000000000000000900463ffffffff16806306575c89146101855780630c850a83146101b057806324589789146101db57806327dc297e1461024857806338bbfa50146102bf5780633d87988a1461037c5780633f4ba83a146103d3578063435c534a146103ea5780634c480d1614610401578063515c5e231461042c578063557ed1ba146104575780635c975abb14610482578063642b4171146104b15780636f9fb98a146104dc578063715018a6146105075780637aaffd821461051e5780638371e6b41461058a5780638456cb59146105945780638da5cb5b146105ab57806394c237c51461060257806397460a6a1461066e57806398c111c31461069b578063a6b7a3a514610708578063aea8f53d14610774578063cfd863f3146107e1578063e2eb41ff1461080e578063f2fde38b14610870578063f6d361cc146108b3578063fd6673f5146108de578063fe13ce3114610909575b600080fd5b34801561019157600080fd5b5061019a610987565b6040518082815260200191505060405180910390f35b3480156101bc57600080fd5b506101c561098d565b6040518082815260200191505060405180910390f35b3480156101e757600080fd5b5061020660048036038101908080359060200190929190505050610993565b604051808273ffffffffffffffffffffffffffffffffffffffff1673ffffffffffffffffffffffffffffffffffffffff16815260200191505060405180910390f35b34801561025457600080fd5b506102bd6004803603810190808035600019169060200190929190803590602001908201803590602001908080601f01602080910402602001604051908101604052809392919081815260200183838082843782019150505050505091929192905050506109d1565b005b3480156102cb57600080fd5b5061037a6004803603810190808035600019169060200190929190803590602001908201803590602001908080601f0160208091040260200160405190810160405280939291908181526020018383808284378201915050505050509192919290803590602001908201803590602001908080601f0160208091040260200160405190810160405280939291908181526020018383808284378201915050505050509192919290505050610a14565b005b34801561038857600080fd5b506103bd600480360381019080803573ffffffffffffffffffffffffffffffffffffffff169060200190929190505050610b95565b6040518082815260200191505060405180910390f35b3480156103df57600080fd5b506103e8610be1565b005b3480156103f657600080fd5b506103ff610c9f565b005b34801561040d57600080fd5b50610416610e4b565b6040518082815260200191505060405180910390f35b34801561043857600080fd5b50610441610e51565b6040518082815260200191505060405180910390f35b34801561046357600080fd5b5061046c610e57565b6040518082815260200191505060405180910390f35b34801561048e57600080fd5b50610497610e5f565b604051808215151515815260200191505060405180910390f35b3480156104bd57600080fd5b506104c6610e72565b6040518082815260200191505060405180910390f35b3480156104e857600080fd5b506104f1610e78565b6040518082815260200191505060405180910390f35b34801561051357600080fd5b5061051c610e97565b005b34801561052a57600080fd5b50610533610f99565b6040518080602001828103825283818151815260200191508051906020019060200280838360005b8381101561057657808201518184015260208101905061055b565b505050509050019250505060405180910390f35b610592611027565b005b3480156105a057600080fd5b506105a96111e2565b005b3480156105b757600080fd5b506105c06112a2565b604051808273ffffffffffffffffffffffffffffffffffffffff1673ffffffffffffffffffffffffffffffffffffffff16815260200191505060405180910390f35b34801561060e57600080fd5b506106176112c7565b6040518080602001828103825283818151815260200191508051906020019060200280838360005b8381101561065a57808201518184015260208101905061063f565b505050509050019250505060405180910390f35b34801561067a57600080fd5b5061069960048036038101908080359060200190929190505050611355565b005b3480156106a757600080fd5b506106c66004803603810190808035906020019092919050505061148d565b604051808273ffffffffffffffffffffffffffffffffffffffff1673ffffffffffffffffffffffffffffffffffffffff16815260200191505060405180910390f35b34801561071457600080fd5b5061071d6114cb565b6040518080602001828103825283818151815260200191508051906020019060200280838360005b83811015610760578082015181840152602081019050610745565b505050509050019250505060405180910390f35b34801561078057600080fd5b5061079f60048036038101908080359060200190929190505050611559565b604051808273ffffffffffffffffffffffffffffffffffffffff1673ffffffffffffffffffffffffffffffffffffffff16815260200191505060405180910390f35b3480156107ed57600080fd5b5061080c60048036038101908080359060200190929190505050611597565b005b34801561081a57600080fd5b5061084f600480360381019080803573ffffffffffffffffffffffffffffffffffffffff1690602001909291905050506117ad565b60405180831515151581526020018281526020019250505060405180910390f35b34801561087c57600080fd5b506108b1600480360381019080803573ffffffffffffffffffffffffffffffffffffffff1690602001909291905050506117de565b005b3480156108bf57600080fd5b506108c8611845565b6040518082815260200191505060405180910390f35b3480156108ea57600080fd5b506108f361184b565b6040518082815260200191505060405180910390f35b34801561091557600080fd5b5061094a600480360381019080803573ffffffffffffffffffffffffffffffffffffffff169060200190929190505050611858565b60405180826020800280838360005b83811015610974578082015181840152602081019050610959565b5050505090500191505060405180910390f35b60085481565b602c5481565b602f818154811015156109a257fe5b906000526020600020016000915054906101000a900473ffffffffffffffffffffffffffffffffffffffff1681565b610a10828260006040519080825280601f01601f191660200182016040528015610a0a5781602001602082028038833980820191505090505b50610a14565b5050565b600060326000856000191660001916815260200190815260200160002060009054906101000a900460ff161515610a4a57600080fd5b600060326000866000191660001916815260200190815260200160002060006101000a81548160ff021916908315150217905550602060405190810160405280600073ffffffffffffffffffffffffffffffffffffffff1673ffffffffffffffffffffffffffffffffffffffff16815250602f906001610acb929190612554565b50602f604051808280548015610b3657602002820191906000526020600020905b8160009054906101000a900473ffffffffffffffffffffffffffffffffffffffff1673ffffffffffffffffffffffffffffffffffffffff1681526020019060010190808311610aec575b505091505060405180910390207fc4826937ea8e1b99da7ccd8770d4e6e51d79c36e0b4a311f2ff94303b4c16c5b60405160405180910390a2600190508015610b8657610b8161190a565b610b8f565b610b8e611939565b5b50505050565b6000602d60008373ffffffffffffffffffffffffffffffffffffffff1673ffffffffffffffffffffffffffffffffffffffff168152602001908152602001600020600201549050919050565b6000809054906101000a900473ffffffffffffffffffffffffffffffffffffffff1673ffffffffffffffffffffffffffffffffffffffff163373ffffffffffffffffffffffffffffffffffffffff16141515610c3c57600080fd5b600060149054906101000a900460ff161515610c5757600080fd5b60008060146101000a81548160ff0219169083151502179055507f7805862f689e2f13df9f062ff482ad3ad112aca9e0847911ed832e158c525b3360405160405180910390a1565b60008060009054906101000a900473ffffffffffffffffffffffffffffffffffffffff1673ffffffffffffffffffffffffffffffffffffffff163373ffffffffffffffffffffffffffffffffffffffff16141515610cfc57600080fd5b602c544210151515610d0d57600080fd5b600060149054906101000a900460ff16151515610d2957600080fd5b610d846040805190810160405280600681526020017f6e657374656400000000000000000000000000000000000000000000000000008152506101e0604051908101604052806101bb81526020016126eb6101bb91396119cc565b9050600160326000836000191660001916815260200190815260200160002060006101000a81548160ff0219169083151502179055507f0415a732c27dc65a8318b1f49677f1d76eb7365d60653ee494ed0897ef70abc86040518080602001828103825260358152602001807f4f7261636c697a65207175657279207761732073656e742c207374616e64696e81526020017f6720627920666f722074686520616e737765722e2e000000000000000000000081525060400191505060405180910390a150565b60305481565b602a5481565b600042905090565b600060149054906101000a900460ff1681565b60075481565b60003073ffffffffffffffffffffffffffffffffffffffff1631905090565b6000809054906101000a900473ffffffffffffffffffffffffffffffffffffffff1673ffffffffffffffffffffffffffffffffffffffff163373ffffffffffffffffffffffffffffffffffffffff16141515610ef257600080fd5b6000809054906101000a900473ffffffffffffffffffffffffffffffffffffffff1673ffffffffffffffffffffffffffffffffffffffff167ff8df31144d9c2f0f6b59d69b8b98abd5459d07f2742c4df920b25aae33c6482060405160405180910390a260008060006101000a81548173ffffffffffffffffffffffffffffffffffffffff021916908373ffffffffffffffffffffffffffffffffffffffff160217905550565b6060603180548060200260200160405190810160405280929190818152602001828054801561101d57602002820191906000526020600020905b8160009054906101000a900473ffffffffffffffffffffffffffffffffffffffff1673ffffffffffffffffffffffffffffffffffffffff1681526020019060010190808311610fd3575b5050505050905090565b600754421115151561103857600080fd5b600060149054906101000a900460ff1615151561105457600080fd5b6006543414151561106457600080fd5b602d60003373ffffffffffffffffffffffffffffffffffffffff1673ffffffffffffffffffffffffffffffffffffffff16815260200190815260200160002060000160009054906101000a900460ff161515156110c057600080fd5b6001602d60003373ffffffffffffffffffffffffffffffffffffffff1673ffffffffffffffffffffffffffffffffffffffff16815260200190815260200160002060000160006101000a81548160ff021916908315150217905550602e3390806001815401808255809150509060018203906000526020600020016000909192909190916101000a81548173ffffffffffffffffffffffffffffffffffffffff021916908373ffffffffffffffffffffffffffffffffffffffff160217905550506111976001603054611f7290919063ffffffff16565b6030819055503373ffffffffffffffffffffffffffffffffffffffff167f155acb785e46d22e9ad70deec4a81d6543bea7097743eedf008261966884f7d860405160405180910390a2565b6000809054906101000a900473ffffffffffffffffffffffffffffffffffffffff1673ffffffffffffffffffffffffffffffffffffffff163373ffffffffffffffffffffffffffffffffffffffff1614151561123d57600080fd5b600060149054906101000a900460ff1615151561125957600080fd5b6001600060146101000a81548160ff0219169083151502179055507f6985a02210a168e66602d3235cb6db0e70f92b3ba4d376a33c0f3d9434bff62560405160405180910390a1565b6000809054906101000a900473ffffffffffffffffffffffffffffffffffffffff1681565b6060602e80548060200260200160405190810160405280929190818152602001828054801561134b57602002820191906000526020600020905b8160009054906101000a900473ffffffffffffffffffffffffffffffffffffffff1673ffffffffffffffffffffffffffffffffffffffff1681526020019060010190808311611301575b5050505050905090565b600080602a54421115151561136957600080fd5b82602d60003373ffffffffffffffffffffffffffffffffffffffff1673ffffffffffffffffffffffffffffffffffffffff168152602001908152602001600020600101816020811015156113b957fe5b602091828204019190069054906101000a900460ff161515156113db57600080fd5b600060149054906101000a900460ff161515156113f757600080fd5b83602d60003373ffffffffffffffffffffffffffffffffffffffff1673ffffffffffffffffffffffffffffffffffffffff168152602001908152602001600020600201819055925083915081833373ffffffffffffffffffffffffffffffffffffffff167f2e82d8f41884f7a5bf1c508ff9b171c96f89a3d57d6873ecf4c463442a9d8d4360405160405180910390a450505050565b60318181548110151561149c57fe5b906000526020600020016000915054906101000a900473ffffffffffffffffffffffffffffffffffffffff1681565b6060602f80548060200260200160405190810160405280929190818152602001828054801561154f57602002820191906000526020600020905b8160009054906101000a900473ffffffffffffffffffffffffffffffffffffffff1673ffffffffffffffffffffffffffffffffffffffff1681526020019060010190808311611505575b5050505050905090565b602e8181548110151561156857fe5b906000526020600020016000915054906101000a900473ffffffffffffffffffffffffffffffffffffffff1681565b602d60003373ffffffffffffffffffffffffffffffffffffffff1673ffffffffffffffffffffffffffffffffffffffff16815260200190815260200160002060000160009054906101000a900460ff1615156115f257600080fd5b602a54421115151561160357600080fd5b80602d60003373ffffffffffffffffffffffffffffffffffffffff1673ffffffffffffffffffffffffffffffffffffffff1681526020019081526020016000206001018160208110151561165357fe5b602091828204019190069054906101000a900460ff1615151561167557600080fd5b600060149054906101000a900460ff1615151561169157600080fd5b600182101580156116a3575060208211155b15156116ae57600080fd5b81602d60003373ffffffffffffffffffffffffffffffffffffffff1673ffffffffffffffffffffffffffffffffffffffff168152602001908152602001600020600201819055506001602d60003373ffffffffffffffffffffffffffffffffffffffff1673ffffffffffffffffffffffffffffffffffffffff1681526020019081526020016000206001018360208110151561174657fe5b602091828204019190066101000a81548160ff021916908315150217905550813373ffffffffffffffffffffffffffffffffffffffff167f2e1fa4308a62950c84a3adea8c00b4da346321e772ac076cf254deb840bb1cb660405160405180910390a35050565b602d6020528060005260406000206000915090508060000160009054906101000a900460ff16908060020154905082565b6000809054906101000a900473ffffffffffffffffffffffffffffffffffffffff1673ffffffffffffffffffffffffffffffffffffffff163373ffffffffffffffffffffffffffffffffffffffff1614151561183957600080fd5b61184281611f8e565b50565b60065481565b6000602e80549050905090565b6118606125de565b602d60008373ffffffffffffffffffffffffffffffffffffffff1673ffffffffffffffffffffffffffffffffffffffff1681526020019081526020016000206001016020806020026040519081016040528092919082602080156118fe576020028201916000905b82829054906101000a900460ff161515815260200190600101906020826000010492830192600103820291508084116118c85790505b50505050509050919050565b602c54421015151561191b57600080fd5b600060149054906101000a900460ff1615151561193757600080fd5b565b602c54421015151561194a57600080fd5b600060149054906101000a900460ff1615151561196657600080fd5b601160085410151561197757600080fd5b600160305411151561198857600080fd5b61199e6001600854611f7290919063ffffffff16565b60088190555062093a80602a6000828254019250508190555062093a80602c60008282540192505081905550565b6000806000600160009054906101000a900473ffffffffffffffffffffffffffffffffffffffff1673ffffffffffffffffffffffffffffffffffffffff161480611a4057506000611a3e600160009054906101000a900473ffffffffffffffffffffffffffffffffffffffff16612088565b145b15611a5157611a4f6000612093565b505b600160009054906101000a900473ffffffffffffffffffffffffffffffffffffffff1673ffffffffffffffffffffffffffffffffffffffff166338cc48316040518163ffffffff167c0100000000000000000000000000000000000000000000000000000000028152600401602060405180830381600087803b158015611ad757600080fd5b505af1158015611aeb573d6000803e3d6000fd5b505050506040513d6020811015611b0157600080fd5b810190808051906020019092919050505073ffffffffffffffffffffffffffffffffffffffff16600260009054906101000a900473ffffffffffffffffffffffffffffffffffffffff1673ffffffffffffffffffffffffffffffffffffffff16141515611c6a57600160009054906101000a900473ffffffffffffffffffffffffffffffffffffffff1673ffffffffffffffffffffffffffffffffffffffff166338cc48316040518163ffffffff167c0100000000000000000000000000000000000000000000000000000000028152600401602060405180830381600087803b158015611bee57600080fd5b505af1158015611c02573d6000803e3d6000fd5b505050506040513d6020811015611c1857600080fd5b8101908080519060200190929190505050600260006101000a81548173ffffffffffffffffffffffffffffffffffffffff021916908373ffffffffffffffffffffffffffffffffffffffff1602179055505b600260009054906101000a900473ffffffffffffffffffffffffffffffffffffffff1673ffffffffffffffffffffffffffffffffffffffff1663524f3889856040518263ffffffff167c01000000000000000000000000000000000000000000000000000000000281526004018080602001828103825283818151815260200191508051906020019080838360005b83811015611d14578082015181840152602081019050611cf9565b50505050905090810190601f168015611d415780820380516001836020036101000a031916815260200191505b5092505050602060405180830381600087803b158015611d6057600080fd5b505af1158015611d74573d6000803e3d6000fd5b505050506040513d6020811015611d8a57600080fd5b8101908080519060200190929190505050905062030d403a02670de0b6b3a764000001811115611dc05760006001029150611f6b565b600260009054906101000a900473ffffffffffffffffffffffffffffffffffffffff1673ffffffffffffffffffffffffffffffffffffffff1663adf59f9982600087876040518563ffffffff167c0100000000000000000000000000000000000000000000000000000000028152600401808481526020018060200180602001838103835285818151815260200191508051906020019080838360005b83811015611e78578082015181840152602081019050611e5d565b50505050905090810190601f168015611ea55780820380516001836020036101000a031916815260200191505b50838103825284818151815260200191508051906020019080838360005b83811015611ede578082015181840152602081019050611ec3565b50505050905090810190601f168015611f0b5780820380516001836020036101000a031916815260200191505b50955050505050506020604051808303818588803b158015611f2c57600080fd5b505af1158015611f40573d6000803e3d6000fd5b50505050506040513d6020811015611f5757600080fd5b810190808051906020019092919050505091505b5092915050565b60008183019050828110151515611f8557fe5b80905092915050565b600073ffffffffffffffffffffffffffffffffffffffff168173ffffffffffffffffffffffffffffffffffffffff1614151515611fca57600080fd5b8073ffffffffffffffffffffffffffffffffffffffff166000809054906101000a900473ffffffffffffffffffffffffffffffffffffffff1673ffffffffffffffffffffffffffffffffffffffff167f8be0079c531659141344cd1fd0a4f28419497f9722a3daafe3b4186f6b6457e060405160405180910390a3806000806101000a81548173ffffffffffffffffffffffffffffffffffffffff021916908373ffffffffffffffffffffffffffffffffffffffff16021790555050565b6000813b9050919050565b600061209d6120a4565b9050919050565b6000806120c4731d3b2638a7cc9f2cb3d298a3da7a90b67e5506ed612088565b111561216657731d3b2638a7cc9f2cb3d298a3da7a90b67e5506ed600160006101000a81548173ffffffffffffffffffffffffffffffffffffffff021916908373ffffffffffffffffffffffffffffffffffffffff16021790555061215d6040805190810160405280600b81526020017f6574685f6d61696e6e657400000000000000000000000000000000000000000081525061253a565b60019050612537565b600061218573c03a2615d5efaf5f49f60b7bb6583eaec212fdf1612088565b11156122275773c03a2615d5efaf5f49f60b7bb6583eaec212fdf1600160006101000a81548173ffffffffffffffffffffffffffffffffffffffff021916908373ffffffffffffffffffffffffffffffffffffffff16021790555061221e6040805190810160405280600c81526020017f6574685f726f707374656e33000000000000000000000000000000000000000081525061253a565b60019050612537565b600061224673b7a07bcf2ba2f2703b24c0691b5278999c59ac7e612088565b11156122e85773b7a07bcf2ba2f2703b24c0691b5278999c59ac7e600160006101000a81548173ffffffffffffffffffffffffffffffffffffffff021916908373ffffffffffffffffffffffffffffffffffffffff1602179055506122df6040805190810160405280600981526020017f6574685f6b6f76616e000000000000000000000000000000000000000000000081525061253a565b60019050612537565b600061230773146500cfd35b22e4a392fe0adc06de1a1368ed48612088565b11156123a95773146500cfd35b22e4a392fe0adc06de1a1368ed48600160006101000a81548173ffffffffffffffffffffffffffffffffffffffff021916908373ffffffffffffffffffffffffffffffffffffffff1602179055506123a06040805190810160405280600b81526020017f6574685f72696e6b65627900000000000000000000000000000000000000000081525061253a565b60019050612537565b60006123c8736f485c8bf6fc43ea212e93bbf8ce046c7f1cb475612088565b111561242c57736f485c8bf6fc43ea212e93bbf8ce046c7f1cb475600160006101000a81548173ffffffffffffffffffffffffffffffffffffffff021916908373ffffffffffffffffffffffffffffffffffffffff16021790555060019050612537565b600061244b7320e12a1f859b3feae5fb2a0a32c18f5a65555bbf612088565b11156124af577320e12a1f859b3feae5fb2a0a32c18f5a65555bbf600160006101000a81548173ffffffffffffffffffffffffffffffffffffffff021916908373ffffffffffffffffffffffffffffffffffffffff16021790555060019050612537565b60006124ce7351efaf4c8b3c9afbd5ab9f4bbc82784ab6ef8faa612088565b1115612532577351efaf4c8b3c9afbd5ab9f4bbc82784ab6ef8faa600160006101000a81548173ffffffffffffffffffffffffffffffffffffffff021916908373ffffffffffffffffffffffffffffffffffffffff16021790555060019050612537565b600090505b90565b8060039080519060200190612550929190612602565b5050565b8280548282559060005260206000209081019282156125cd579160200282015b828111156125cc5782518260006101000a81548173ffffffffffffffffffffffffffffffffffffffff021916908373ffffffffffffffffffffffffffffffffffffffff16021790555091602001919060010190612574565b5b5090506125da9190612682565b5090565b61040060405190810160405280602090602082028038833980820191505090505090565b828054600181600116156101000203166002900490600052602060002090601f016020900481019282601f1061264357805160ff1916838001178555612671565b82800160010185558215612671579182015b82811115612670578251825591602001919060010190612655565b5b50905061267e91906126c5565b5090565b6126c291905b808211156126be57600081816101000a81549073ffffffffffffffffffffffffffffffffffffffff021916905550600101612688565b5090565b90565b6126e791905b808211156126e35760008160009055506001016126cb565b5090565b9056005b55524c5d205b276a736f6e2868747470733a2f2f6170692e72616e646f6d2e6f72672f6a736f6e2d7270632f312f696e766f6b65292e726573756c742e72616e646f6d5b2264617461225d272c20275c6e7b226a736f6e727063223a2022322e30222c20226d6574686f64223a202267656e65726174655369676e6564496e746567657273222c2022706172616d73223a207b20226170694b6579223a2022247b5b646563727970745d20424f7847596e31594966684a5a485446514b534b5a2f47354b32656555774f6e6c435a654f4f6c4e646d335a4b6f67755930444c654a78614f71486c363647676d547164374e4559593267366f6d4f684367754651555a6c7a334379516b38576d455a35464b57667a6e46544643484b6b52314350466f657a45726a3834756b794f6e777436614e4161534a684235674d5763654252766a5644482f7d222c20226e223a20312c20226d696e223a20312c20226d6178223a20313030302c20227265706c6163656d656e74223a20747275652c202262617365223a203130247b5b6964656e746974795d20227d227d2c20226964223a203134323135247b5b6964656e746974795d20227d227d275da165627a7a723058208aead7832e686a810130c68c9193116c0b14b0acba45038cb5989ae6e22fd48c0029",
  "source": "pragma solidity ^0.4.19;\n\n// Import libraries\n// (note: Pausable is Ownable, so we don't need to import Ownable)\nimport \"../node_modules/openzeppelin-solidity/contracts/lifecycle/Pausable.sol\";\nimport \"../node_modules/openzeppelin-solidity/contracts/math/SafeMath.sol\";\nimport \"../node_modules/openzeppelin-solidity/contracts/payment/PullPayment.sol\";\nimport \"./usingOraclize.sol\";\n\n/*\n\nThis contract attempts to follow one of the goals of Vyper, which the Vyper\ndocumentation defines as:\n\nAuditability: Vyper code should be maximally human-readable. Furthermore, it\nshould be maximally difficult to write misleading code. Simplicity for the\nreader is more important than simplicity for the writer, and simplicity for\nreaders with low prior experience with Vyper (and low prior experience with\nprogramming in general) is particularly important.\n\nFor this reason, the following design descisions are used (a lot of the below is\nparaphrased from the Vyper documention):\n  - The above modules will be moved inline later to improve readability (and to\n    help with verifying code on Etherscan)\n  - Bounds and overflow checking will be performed on all arithmetic and array\n    access operations\n  - No inline assembly, as it removes the ability to search for a variable name\n    to find all instances of its modification. Furthermore, assembly is not\n    readable to those unfamiliar with it\n  - No function or operator overloading, since it is easy to write misleading\n    code and\n  - No recursive calling, as it prevents setings upper bounds on gas limits\n    (exception here is using Oraclize to schedule weekly API calls)\n\nRules\n  - NFL season begins Thursday, September 6, 2018, at 8:20 pm EST\n  - New players will be allowed to enter until Monday at 8:20 pm EST\n  - Players will have until that Thursday at 8:00 pm EST to make their pick\n      - This gap is to prevent miner manipulation of block timestamps\n\nNotes\n  - To get epoch timestamp, use https://www.epochconverter.com/\n\nNotation\n  - Constant variables are written in UPPERCASE\n\nArchitecture (idea)\n  - Upon creating the contract, we define the entry fee and deadline, and a time\n    by which all week 1 games are over\n  - We now allow players to join the pool and make week 1 picks\n  - After week 1 games end, we make a query to our server using Oraclize\n      - If number of players remaining = 1, we return the winning address\n      - Otherwise, the server maintains the list of remaining vs. eliminated\n        players and we use that to properly display the front-end\n\n\n  - In the contract, we store a list of players, their current pick, and their\n    historical picks\n      - This is how we verify a pick is ok when submitted\n      - However, we do not verify that a player is still alive (i.e. not\n        eliminated) on the smart contract. If they make a pick and are\n        eliminated, it will get ignored by the server\n  - We also store the total number of players remaining\n  - If the total remaining players is 1, we reach out to our API and figure out\n    who that player is\n  - This architecture is not yet implemented\n*/\n\n/**\n * @title Survivor\n * @dev NFL Survivor Contract\n */\ncontract Survivor is Pausable, usingOraclize {\n  using SafeMath for uint;\n\n  // ===========================================================================\n  //                             State Variables\n  // ===========================================================================\n\n  // Variables for entering the contract ---------------------------------------\n  // fee required to enter\n  uint256 public ENTRY_FEE;\n  // timestamp of entry deadline\n  uint256 public ENTRY_DEADLINE;\n\n\n  // NFL details ---------------------------------------------------------------\n  // integer 1-17, NFL week number\n  uint256 public currentWeek;\n  // to avoid strings, use numbers to alphabetically map the teams, such that:\n  //   ARI\t-- 1    DAL -- 9     LAC -- 17    OAK -- 25\n  //   ATL\t-- 2    DEN -- 10    LAR -- 18    PHI -- 26\n  //   BAL\t-- 3    DET -- 11    MIA -- 19    PIT -- 27\n  //   BUF\t-- 4    GB\t-- 12    MIN -- 20    SEA -- 28\n  //   CAR\t-- 5    HOU -- 13    NE\t -- 21    SF\t-- 29\n  //   CHI\t-- 6    IND -- 14    NO\t -- 22    TB  -- 30\n  //   CIN\t-- 7    JAX -- 15    NYG -- 23    TEN -- 31\n  //   CLE\t-- 8    KC\t-- 16    NYJ -- 24    WAS -- 32\n\n  // Teams start at 1 since uints will default to a value of 0. This helps\n  // distringuish between a pick of ARI vs. no pick\n\n\n  uint256 constant NUMBER_OF_TEAMS = 32;\n  uint256[NUMBER_OF_TEAMS] TEAMS = [1,2,3,4,5,6,7,8,9,10,11,12,13,14,15,16,17,18,19,20,21,22,23,24,25,26,27,28,29,30,31,32];\n\n\n  // Variables for making weekly picks -----------------------------------------\n  // timestamp, deadline to make week 1 picks\n  uint256 FIRST_PICK_DEADLINE = ENTRY_DEADLINE;\n  // timestamp, deadline for current week's pick\n  uint256 public currentPickDeadline;\n\n\n  // Variables to indicate when games are over ---------------------------------\n  // timestamp, when all week 1 games are over\n  uint256 FIRST_WEEK_GAME_END;\n  // timestamp, when this week's games are over\n  uint256 public currentWeekGameEnd;\n\n\n  // Variables for Game Management ---------------------------------------------\n  // structure to track info for each player\n  struct PlayerInfo {\n    bool hasJoined;    // used to ensure players only enter once\n    bool[NUMBER_OF_TEAMS] picks; // change index to true once a team is picked\n    uint256 currentPick; // integer 0-31 represeting players current pick\n  }\n  // mapping of players to their status\n  mapping(address => PlayerInfo) public players;\n  // array of all entered players (this can't be retrieved from a mapping)\n  address[] public playersEntered;\n  // array of remaining players that is passed in from the API\n  address[] public remainingPlayers;\n  // number of players remaining\n  uint256 public numPlayersRemaining;\n  // address of the winners\n  address[] public winningPlayers;\n\n\n  // Variables for Oraclize ----------------------------------------------------\n  mapping(bytes32 => bool) validIds; // used for validating Query IDs\n  uint constant gasPriceForOraclize = 15000000000 wei; // for Oraclize callback, 15 Gwei\n\n  // Contract States -----------------------------------------------------------\n  // define possible states of the contract\n  //   Entry           -- users can enter the pool, and can also make their\n  //                      picks for the first week\n  //   MakePicks       -- users submit their picks for who they think will win\n  //                      this week\n  //   WaitForGames    -- nothing happens here, we just wait for all of that\n  //                      week's games to be completed\n  //   DetermineResult -- contract determines weekly winners and eliminates\n  //                      players accordingly\n  //   Final           -- a winning condition, as described above, has been met\n\n\n  // Administrative variables --------------------------------------------------\n  // Contract ownership handled by Ownable\n\n\n  // ===========================================================================\n  //                                 Events\n  // ===========================================================================\n\n  event LogNewPlayerJoined(address indexed player);\n  event LogPickMade(address indexed player, uint256 indexed team);\n  event LogPickChanged(address indexed player, uint256 indexed oldteam, uint256 indexed newteam);\n  event LogOraclizeQuery(string description);\n  event LogRemainingPlayersReceived(address[] indexed players);\n\n\n  // ===========================================================================\n  //                               Modifiers\n  // ===========================================================================\n\n  // In addition to the modifiers below, the following additional used modifiers\n  // exist from the imports defined at the top of this file:\n  //   whenPaused    [Pausable.sol]\n  //   whenNotPaused [Pausable.sol]\n  //   onlyOwner     [Pausable.sol is Ownable.sol]\n\n  // Ensure entry deadline has not passed\n  modifier onlyBeforeEntryDeadline() {\n    require(now <= ENTRY_DEADLINE);\n    _;\n  }\n\n  // Ensure pick deadline has not passed\n  modifier onlyBeforePickDeadline() {\n    require(now <= currentPickDeadline);\n    _;\n  }\n\n  // Ensure caller has not been eliminated\n  modifier onlyPlayersWhoJoined() {\n    require(\n      players[msg.sender].hasJoined);\n    _;\n  }\n\n  // Ensure team has not yet been chosen\n  modifier onlyAllowNewTeams(uint256 _team) {\n    require(\n      !players[msg.sender].picks[_team]);\n    _;\n  }\n\n  // Ensure all games for this week have ended\n  modifier onlyAfterThisWeeksGamesEnd() {\n    require(\n      now >= currentWeekGameEnd);\n    _;\n  }\n\n\n  // ===========================================================================\n  //                                Constructor\n  // ===========================================================================\n  constructor(uint256 _entryFee, uint256 _entryDeadline, uint256 _firstWeekGameEnd)\n    public\n  {\n\n    // Set entry fee\n    ENTRY_FEE = _entryFee;\n\n    // Initialize deadlines\n    ENTRY_DEADLINE = _entryDeadline;\n    FIRST_PICK_DEADLINE = ENTRY_DEADLINE;\n    FIRST_WEEK_GAME_END = _firstWeekGameEnd;\n\n    // Set variables to week 1 conditions\n    currentWeek = 1;\n    currentPickDeadline = FIRST_PICK_DEADLINE;\n    currentWeekGameEnd = FIRST_WEEK_GAME_END;\n\n    // Set Oraclize proof type\n    oraclize_setProof(proofType_TLSNotary | proofStorage_IPFS);\n\n    // Set gas price for Oraclize callback\n    oraclize_setCustomGasPrice(gasPriceForOraclize);\n  }\n\n\n\n  // ===========================================================================\n  //                                Methods\n  // ===========================================================================\n\n  // In addition to the functions below, the following additional used functions\n  // exist from the imports defined at the top of this file:\n  //   asyncTransfer    [PullPayment.sol]\n\n\n  /**\n   * @dev Allows players to join the pool if they send the required entry fee\n   */\n  function joinPool()\n    external\n    payable\n    onlyBeforeEntryDeadline\n    whenNotPaused\n  {\n\n    // CHECKS\n    // Ensure required Ether was sent\n    require(msg.value == ENTRY_FEE);\n    // Ensure this address has not joined already\n    require(!players[msg.sender].hasJoined);\n\n    // EFFECTS\n    // Update variables to indicate that player has joined\n    players[msg.sender].hasJoined = true;\n    playersEntered.push(msg.sender);\n    numPlayersRemaining = numPlayersRemaining.add(1);\n    // players[msg.sender].picks defaults to all false, so doesn't need to be updated\n\n    emit LogNewPlayerJoined(msg.sender);\n\n  } // end joinPool\n\n\n  /**\n   * @dev Allows players to make their pick for the week\n   * @param _team Integer 0-31 representing chosen team, mapped as shown above\n   */\n  function makePick(uint256 _team)\n    external\n    onlyPlayersWhoJoined\n    onlyBeforePickDeadline\n    onlyAllowNewTeams(_team)\n    whenNotPaused\n  {\n\n    // CHECKS\n    // Most checks handled with modifiers. We do not validate that a player is\n    // not eliminated. That is handled on the server. Handling it here makes the\n    // smart contract logic complicated and gas costs get expensive\n\n    // Make sure valid team is selected\n    require(_team >= 1 && _team <= 32);\n\n    // EFFECTS\n    // Update the players current pick\n    players[msg.sender].currentPick = _team;\n    // Update their history of picks\n    players[msg.sender].picks[_team] = true;\n\n    emit LogPickMade(msg.sender, _team);\n\n  } // end makePick\n\n\n  /**\n   * @dev Allows players to change their pick for the week\n   * @param _team Integer 0-31 representing chosen team, mapped as shown above\n   */\n  function changePick(uint256 _team)\n    external\n    view\n    onlyBeforePickDeadline\n    onlyAllowNewTeams(_team)\n    whenNotPaused\n  {\n\n    // CHECKS\n    // All checks handled with modifiers\n\n    // EFFECTS\n    uint oldteam = players[msg.sender].currentPick = _team;\n    uint newteam = _team;\n    // TODO -- not yet implemented\n\n    emit LogPickChanged(msg.sender, oldteam, newteam);\n\n  } // end changePick\n\n\n\n  /**\n   * @dev Begins process of getting this weeks results from the server\n   */\n  function getThisWeeksResults()\n    public\n    onlyOwner\n    onlyAfterThisWeeksGamesEnd\n    whenNotPaused\n  {\n    // CHECKS\n    // Checks handled with modifiers\n\n    // Send query\n    bytes32 queryId = oraclize_query(\n      \"nested\",\n      \"[URL] ['json(https://api.random.org/json-rpc/1/invoke).result.random[\\\"data\\\"]', '\\\\n{\\\"jsonrpc\\\": \\\"2.0\\\", \\\"method\\\": \\\"generateSignedIntegers\\\", \\\"params\\\": { \\\"apiKey\\\": \\\"${[decrypt] BOxGYn1YIfhJZHTFQKSKZ/G5K2eeUwOnlCZeOOlNdm3ZKoguY0DLeJxaOqHl66GgmTqd7NEYY2g6omOhCguFQUZlz3CyQk8WmEZ5FKWfznFTFCHKkR1CPFoezErj84ukyOnwt6aNAaSJhB5gMWceBRvjVDH/}\\\", \\\"n\\\": 1, \\\"min\\\": 1, \\\"max\\\": 1000, \\\"replacement\\\": true, \\\"base\\\": 10${[identity] \\\"}\\\"}, \\\"id\\\": 14215${[identity] \\\"}\\\"}']\"\n    );\n\n    // Add query ID to mapping\n    validIds[queryId] = true;\n\n    // Log that query was sent\n    emit LogOraclizeQuery(\"Oraclize query was sent, standing by for the answer..\");\n\n  } // end\n\n\n  function prepareForNextWeek()\n    private\n    onlyAfterThisWeeksGamesEnd\n    whenNotPaused\n  {\n    // CHECKS\n    // Ensure only this contract is calling this\n    // Ensure all games for this week have ended\n\n    // Make sure this wasn't the last week\n    require(currentWeek < 17);\n    // Make sure there are players remaining\n    require(numPlayersRemaining > 1);\n\n    // EFFECTS\n    // Update deadlines\n    currentWeek = currentWeek.add(1);\n    currentPickDeadline += 1 weeks;\n    currentWeekGameEnd += 1 weeks;\n  } // end prepareForNextWeek\n\n\n  function preparePayouts()\n    private\n    onlyAfterThisWeeksGamesEnd\n    whenNotPaused\n  {\n\n  }\n\n\n\n  /**\n   * @dev Callback function for Oralize once it retreives the data\n   *\n   * SCENARIOS (handled on server unless 1 player left):\n   *\n   *           | It was not week 17         | It was week 17\n   * ----------|----------------------------|-----------------------------------\n   * 0 Players | Keep eliminated players    | Split pot among eliminated players\n   * Left      | Outcome: Make picks        | Outcome: Game ends\n   * ----------|----------------------------|-----------------------------------\n   * 1 Player  | Pay winner                 | Pay winner\n   * Left      | Outcome: Game ends         | Outcome: Game ends\n   * ----------|----------------------------|-----------------------------------\n   * >1 Players| Prepare for next week      | Split pot among remaining players\n   * Left      | Outcome: Make picks        | Outcome: Game ends\n   * ----------|----------------------------|-----------------------------------*/\n  function __callback(bytes32 queryId, string result, bytes proof) public {\n    // Only allow Oraclize to call this function\n    // require(msg.sender == oraclize_cbAddress());\n\n    // Validate the query ID\n    require(validIds[queryId]);\n\n    // Reset mapping of this ID to false (this ensures the callback for a given\n    // queryID is never called twice)\n    validIds[queryId] = false;\n\n    // get the random number, result is of the form: [268]\n    // if we also returned \"serialNumber\", form would be: [3008768, [268]]\n    remainingPlayers = [0x0000000000000000000000000000000000000000];\n\n    // log the new number that was obtained\n    emit LogRemainingPlayersReceived(remainingPlayers);\n\n    // EFFECTS\n    // Get results from Oracle\n    // If the returned call begins with \"T\", we have winners\n    // If the returned call begins with \"F\", we continue on to next week\n    bool weHaveWinners = true;\n\n    // TOP ROW -----------------------------------------------------------------\n    if (weHaveWinners) {\n      preparePayouts();\n    } else {\n      prepareForNextWeek();\n    }\n\n\n  }\n\n\n\n  // ===========================================================================\n  //                           Front End Helpers\n  // ===========================================================================\n\n  function getEnteredPlayers()\n    public\n    view\n    returns(address[])\n  {\n    return playersEntered;\n  }\n\n\n  function getRemainingPlayers()\n    public\n    view\n    returns(address[])\n  {\n    return remainingPlayers;\n  }\n\n  function getWinningPlayers()\n    public\n    view\n    returns(address[])\n  {\n    return winningPlayers;\n  }\n\n\n  function getNumberOfPlayers()\n    public\n    view\n    returns(uint256)\n  {\n    return playersEntered.length;\n  }\n\n\n  function getPlayersPick(address _player)\n    public\n    view\n    returns(uint256)\n  {\n    return players[_player].currentPick;\n  }\n\n\n  function getPlayersPickHistory(address _player)\n    public\n    view\n    returns(bool[32])\n  {\n    return players[_player].picks;\n  }\n\n\n  function getContractBalance()\n    public\n    view\n    returns(uint256)\n  {\n    return address(this).balance;\n  }\n\n\n  function getTime()\n    public\n    view\n    returns(uint256)\n  {\n    return block.timestamp;\n  }\n\n\n}\n",
  "sourcePath": "/Users/mds/Documents/dapps/survivor-frontend/contracts/Survivor.sol",
  "compiler": {
    "name": "solc",
    "version": "0.4.24+commit.e67f0147.Emscripten.clang"
  },
  "schemaVersion": "2.0.1",
  "updatedAt": "2018-08-20T22:50:03.120Z"
}